:100000000C9435000C945D000C945D000C945D0024
:100010000C945D000C945D000C945D000C945D00EC
:100020000C945D000C945D000C945D000C945D00DC
:100030000C945D000C945D000C945D000C945D00CC
:100040000C9401020C945D000C9434040C9466042E
:100050000C945D000C945D000C945D000C945D00AC
:100060000C945D000C945D00960411241FBECFEF2C
:10007000D4E0DEBFCDBF11E0A0E0B1E0EEE6FBE0F2
:1000800002C005900D92AE38B107D9F722E0AEE874
:10009000B1E001C01D92A337B207E1F710E0CAE654
:1000A000D0E004C02297FE010E94B105C836D107F6
:1000B000C9F70E94DA040C94B5050C940000CF93A4
:1000C000DF931F92CDB7DEB740ED57E060E070E000
:1000D00086E991E00E94680120E835E240E050E0C6
:1000E00066ED71E086E991E00E947B0186E991E08E
:1000F0000E94650160E071E08091C7019091C801A4
:100100000E9427056AE070E080E090E00E947A0299
:1001100041E060E086E991E00E94E60126E040E8E7
:1001200055E260E070E086ED91E00E94D20383E04A
:100130008983FE01319664914AE050E086ED91E0BA
:100140000E9485050F90DF91CF910895CF92DF92A5
:10015000EF92FF920F931F930E944B02672B682B25
:10016000692B41F40E944B026230710581059105B3
:1001700008F47CC00E944B0260938E0170938F0143
:1001800080939001909391010091920110919301BD
:1001900020919401309195016017710782079307B0
:1001A00040F4609392017093930180939401909333
:1001B0009501009192011091930120919401309149
:1001C00095016B017C01C01AD10AE20AF30A97017A
:1001D00086010A3F11052105310508F447C06093E7
:1001E000920170939301809394019093950186E915
:1001F00091E00E94650162E171E08091C7019091F8
:10020000C8010E9427056AE171E08091C7019091C1
:10021000C8010E9427050E944B02AB01BC012AE0E5
:1002200030E08091C7019091C8010E9478056CE18F
:1002300071E08091C7019091C8010E94270562E09A
:1002400070E080E090E00E947A026AE070E080E076
:1002500090E00E947A0261E086E991E01F910F919F
:10026000FF90EF90DF90CF900C94A8011F910F9119
:10027000FF90EF90DF90CF9008950F931F93CF934F
:10028000DF93EC01662359F00E944B0269837A8365
:100290008B839C83DF91CF911F910F9108950E94D2
:1002A0004B0209811A812B813C81601B710B820BEF
:1002B000930B613271058105910530F763E070E0C1
:1002C00080E090E00E947A02EACF60E00C943D0169
:1002D000FC0113AA14AA15AA16AA1182128213826B
:1002E0001482411551056105710521F0CB01BA0158
:1002F0000C947A020895FB01BA01A901DC01D2969F
:10030000FC93EE93D19726E0CF010C94D2031F9378
:10031000CF93DF93EC01162F65E271E089A99AA9CA
:100320000E9427054AE050E0612F89A99AA90E94FE
:1003300085056CE271E089A99AA90E94270562E30C
:1003400070E080E090E0DF91CF911F910C947A02F1
:100350001F93CF93DF93EC01162F8D81882389F1B2
:1003600089A99AA9DC01ED91FC910480F581E02D29
:100370000995892BA9F307C02637310519F12835CE
:10038000310509F41D8289A99AA9DC01ED91FC913E
:100390000480F581E02D09951816190694F489A9B1
:1003A0009AA9DC01ED91FC910680F781E02D099579
:1003B0009C01332723363105F9F6612FCE010E94C7
:1003C000870183E6DF91CF911F9108950F931F93CB
:1003D000CF93DF931F92CDB7DEB78C01662349F030
:1003E00081E0F801858360E0C80149830E94A8018B
:1003F0004981F80145830F90DF91CF911F910F91B3
:1004000008951F920F920FB60F9211242F933F93CE
:100410008F939F93AF93BF938091CE019091CF0123
:10042000A091D001B091D1013091CD0123E0230FF3
:100430002D3720F40196A11DB11D05C026E8230F1C
:100440000296A11DB11D2093CD018093CE01909302
:10045000CF01A093D001B093D1018091D2019091AE
:10046000D301A091D401B091D5010196A11DB11D78
:100470008093D2019093D301A093D401B093D5017E
:10048000BF91AF919F918F913F912F910F900FBE90
:100490000F901F9018952FB7F8946091CE0170912E
:1004A000CF018091D0019091D1012FBF08953FB726
:1004B000F8948091D2019091D301A091D401B09190
:1004C000D50126B5A89B05C02F3F19F00196A11DA7
:1004D000B11D3FBF6627782F892F9A2F620F711D9C
:1004E000811D911D42E0660F771F881F991F4A9555
:1004F000D1F708958F929F92AF92BF92CF92DF92E1
:10050000EF92FF926B017C010E9457024B015C014C
:10051000C114D104E104F104F1F00E948C050E94A1
:100520005702681979098A099B09683E7340810559
:10053000910570F321E0C21AD108E108F10888EEB4
:10054000880E83E0981EA11CB11CC114D104E104E3
:10055000F10429F7DDCFFF90EF90DF90CF90BF90AF
:10056000AF909F908F900895789484B5826084BDF9
:1005700084B5816084BD85B5826085BD85B58160A7
:1005800085BDEEE6F0E0808181608083E1E8F0E007
:100590001082808182608083808181608083E0E836
:1005A000F0E0808181608083E1EBF0E08081846015
:1005B0008083E0EBF0E0808181608083EAE7F0E017
:1005C000808184608083808182608083808181607B
:1005D00080838081806880831092C1000895FC012F
:1005E000818D228D90E0805C9F4F821B91098F73DB
:1005F00099270895FC01918D828D981731F0828D95
:10060000E80FF11D858D90E008958FEF9FEF08951D
:10061000FC01918D828D981761F0828DDF01A80F0A
:10062000B11D5D968C91928D9F5F9F73928F90E02C
:1006300008958FEF9FEF08958CE894E0892B49F09F
:1006400080E090E0892B29F00E948C0481110C94A9
:1006500000000895FC01848DDF01A80FB11DA35A8D
:10066000BF4F2C91848D90E001968F739927848FD2
:10067000A689B7892C93A089B1898C9180648C93C9
:10068000938D848D981306C00288F389E02D8081B4
:100690008F7D80830895CF93DF93EC01888D88232D
:1006A000C9F0EA89FB89808185FD05C0A889B989DF
:1006B0008C9186FD0FC00FB607FCF5CF808185FFBA
:1006C000F2CFA889B9898C9185FFEDCFCE010E9428
:1006D0002A03E7CFDF91CF910895CF92DF92FF9267
:1006E0000F931F93CF93DF931F92CDB7DEB76C01AB
:1006F00081E0D60158968C9358975B969C915B97B6
:100700005C968C915C97981307C05096ED91FC9184
:100710005197808185FD2EC0F601038D10E00F5F9B
:100720001F4F0F731127F02EF601848DF81211C0A0
:100730000FB607FCF9CFD6015096ED91FC91519779
:10074000808185FFF1CFC60169830E942A036981F8
:10075000EBCF838DE80FF11DE35AFF4F6083D60185
:100760005B960C935B975296ED91FC915397808129
:1007700080620CC0D6015696ED91FC91579760832C
:100780005096ED91FC91519780818064808381E047
:1007900090E00F90DF91CF911F910F91FF90DF902C
:1007A000CF900895BF92CF92DF92EF92FF92CF93B6
:1007B000DF93EC016A017B01B22EE889F98982E0BE
:1007C0008083411581EE580761057105A1F060E055
:1007D00079E08DE390E0A70196010E948D052150FC
:1007E00031094109510956954795379527952115A6
:1007F00080E1380798F0E889F989108260E874E8A8
:100800008EE190E0A70196010E948D0521503109EB
:10081000410951095695479537952795EC85FD85F2
:100820003083EE85FF852083188EEC89FD89B082A8
:10083000EA89FB89808180618083EA89FB898081E4
:1008400088608083EA89FB89808180688083EA8967
:10085000FB8980818F7D8083DF91CF91FF90EF9026
:10086000DF90CF90BF9008951F920F920FB60F9216
:1008700011242F938F939F93EF93FF93E091E601C1
:10088000F091E7018081E091EC01F091ED0182FDB2
:1008900012C090818091EF018F5F8F732091F001E2
:1008A000821751F0E091EF01F0E0EA52FE4F958F90
:1008B0008093EF0101C08081FF91EF919F918F9113
:1008C0002F910F900FBE0F901F9018951F920F92AF
:1008D0000FB60F9211242F933F934F935F936F9313
:1008E0007F938F939F93AF93BF93EF93FF9386ED87
:1008F00091E00E942A03FF91EF91BF91AF919F91E8
:100900008F917F916F915F914F913F912F910F90B8
:100910000FBE0F901F90189586ED91E00E94EF0298
:1009200021E0892B09F420E0822F08951092D9014B
:100930001092D80188EE93E0A0E0B0E08093DA0155
:100940009093DB01A093DC01B093DD0181E891E09D
:100950009093D7018093D60185EC90E09093E301CA
:100960008093E20184EC90E09093E5018093E401B0
:1009700080EC90E09093E7018093E60181EC90E0B9
:100980009093E9018093E80182EC90E09093EB0171
:100990008093EA0186EC90E09093ED018093EC0166
:1009A0001092EF011092F0011092F1011092F201F9
:1009B000089508950E94B4020E94D9040E945F0025
:1009C000CCE1D3E00E94A6002097E1F30E941C0333
:1009D000F9CFCF92DF92EF92FF920F931F93CF93B5
:1009E000DF937C016A01EB0100E010E00C151D05AE
:1009F00071F06991D701ED91FC910190F081E02DAA
:100A0000C7010995892B19F00F5F1F4FEFCFC80160
:100A1000DF91CF911F910F91FF90EF90DF90CF90DA
:100A200008956115710581F0DB010D900020E9F753
:100A3000AD0141505109461B570BDC01ED91FC9172
:100A40000280F381E02D099480E090E008950C94F9
:100A500011058F929F92AF92BF92DF92EF92FF9219
:100A60000F931F93CF93DF93CDB7DEB7A1970FB648
:100A7000F894DEBF0FBECDBF7C01F42FD52ECB0185
:100A800019A2223008F42AE08E010F5D1F4F822E3A
:100A9000912CA12CB12C6F2F7D2DA50194010E94CA
:100AA0008D05F22FD32ECA01015011096A3014F4BA
:100AB000E0E301C0E7E3E60FD801EC93232B242BFE
:100AC000252B49F7B801C7010E941105A1960FB661
:100AD000F894DEBF0FBECDBFDF91CF911F910F9174
:100AE000FF90EF90DF90BF90AF909F908F90089510
:100AF0002115310541F4DC01ED91FC910190F0816B
:100B0000E02D642F09940C9429059A01462F50E09A
:100B100060E070E00C9478050895A1E21A2EAA1BFB
:100B2000BB1BFD010DC0AA1FBB1FEE1FFF1FA2179D
:100B3000B307E407F50720F0A21BB30BE40BF50B9A
:100B4000661F771F881F991F1A9469F76095709523
:100B5000809590959B01AC01BD01CF010895EE0FEA
:0E0B6000FF1F0590F491E02D0994F894FFCF4B
:100B6E00564D4450565F317C315F564D4450560DB4
:100B7E000A00564D4450455F31007C005F564D448F
:100B8E0050450D0A00564D4450435F005F564D448C
:100B9E0050430D0A004572726F723A2041747465AB
:100BAE006D707420746F207365742061207265619E
:100BBE00642D6F6E6C79207661726961626C65204E
:100BCE006F7220646174612074797065206E6F7429
:100BDE0020737570706F727465640D0A00000000EA
:0E0BEE00006D03E904EF020803FA024B030056
:00000001FF
